{
  "transactions": [
    {
      "hash": "0x6330c27219d7b13ef43ac6301f27e7bafda33947973a359a0a58e28d32a391c0",
      "transactionType": "CALL",
      "contractName": null,
      "contractAddress": "0xB06c44B2601AB296269dDC081492B266C49C6949",
      "function": "approve(address,uint256)",
      "arguments": [
        "0xD570bF4598D3ccF214E288dd92222b8Bd3134984",
        "1000000000000000000"
      ],
      "transaction": {
        "type": "0x00",
        "from": "0x0000007eabfc2e6a6b33b21d2f73d58941bab574",
        "to": "0xb06c44b2601ab296269ddc081492b266c49c6949",
        "gas": "0x108e9",
        "value": "0x0",
        "data": "0x095ea7b3000000000000000000000000d570bf4598d3ccf214e288dd92222b8bd31349840000000000000000000000000000000000000000000000000de0b6b3a7640000",
        "nonce": "0x5"
      },
      "additionalContracts": [],
      "isFixedGasLimit": false
    },
    {
      "hash": "0x6a5553937e5ec73bfae33d6e5ee2a9a228e6dc9b4c7c938200b9a19052c46a5e",
      "transactionType": "CALL",
      "contractName": null,
      "contractAddress": "0x7356f4cC77168d0e6f94F1d8E28aeA1316852c0d",
      "function": "approve(address,uint256)",
      "arguments": [
        "0xD570bF4598D3ccF214E288dd92222b8Bd3134984",
        "1000000000000000000"
      ],
      "transaction": {
        "type": "0x00",
        "from": "0x0000007eabfc2e6a6b33b21d2f73d58941bab574",
        "to": "0x7356f4cc77168d0e6f94f1d8e28aea1316852c0d",
        "gas": "0x108e9",
        "value": "0x0",
        "data": "0x095ea7b3000000000000000000000000d570bf4598d3ccf214e288dd92222b8bd31349840000000000000000000000000000000000000000000000000de0b6b3a7640000",
        "nonce": "0x6"
      },
      "additionalContracts": [],
      "isFixedGasLimit": false
    },
    {
      "hash": "0x8dddb0ff1f512ada33d26ea46d35885d742939d469f492b0a3b64ce172377dca",
      "transactionType": "CALL",
      "contractName": "FiatOnramp",
      "contractAddress": "0xD570bF4598D3ccF214E288dd92222b8Bd3134984",
      "function": "createOrder(address,uint256,uint256)",
      "arguments": [
        "0xB06c44B2601AB296269dDC081492B266C49C6949",
        "150000000",
        "1"
      ],
      "transaction": {
        "type": "0x00",
        "from": "0x0000007eabfc2e6a6b33b21d2f73d58941bab574",
        "to": "0xd570bf4598d3ccf214e288dd92222b8bd3134984",
        "gas": "0x4864f",
        "value": "0x0",
        "data": "0xacfee8ed000000000000000000000000b06c44b2601ab296269ddc081492b266c49c69490000000000000000000000000000000000000000000000000000000008f0d1800000000000000000000000000000000000000000000000000000000000000001",
        "nonce": "0x7"
      },
      "additionalContracts": [],
      "isFixedGasLimit": false
    },
    {
      "hash": "0x31381ce3b5400405c27a3d5599222c8e52b5dd46409588ba88fa3ad363406ebd",
      "transactionType": "CALL",
      "contractName": "FiatOnramp",
      "contractAddress": "0xD570bF4598D3ccF214E288dd92222b8Bd3134984",
      "function": "createOrder(address,uint256,uint256)",
      "arguments": [
        "0x7356f4cC77168d0e6f94F1d8E28aeA1316852c0d",
        "100000000",
        "2"
      ],
      "transaction": {
        "type": "0x00",
        "from": "0x0000007eabfc2e6a6b33b21d2f73d58941bab574",
        "to": "0xd570bf4598d3ccf214e288dd92222b8bd3134984",
        "gas": "0x4248d",
        "value": "0x0",
        "data": "0xacfee8ed0000000000000000000000007356f4cc77168d0e6f94f1d8e28aea1316852c0d0000000000000000000000000000000000000000000000000000000005f5e1000000000000000000000000000000000000000000000000000000000000000002",
        "nonce": "0x8"
      },
      "additionalContracts": [],
      "isFixedGasLimit": false
    },
    {
      "hash": "0x271ba212ad6824ffde15afb84ed60bb917cf4b3ffdede75e90fd004b7906dc9f",
      "transactionType": "CALL",
      "contractName": "FiatOnramp",
      "contractAddress": "0xD570bF4598D3ccF214E288dd92222b8Bd3134984",
      "function": "createOrder(address,uint256,uint256)",
      "arguments": [
        "0x7356f4cC77168d0e6f94F1d8E28aeA1316852c0d",
        "200000000",
        "3"
      ],
      "transaction": {
        "type": "0x00",
        "from": "0x0000007eabfc2e6a6b33b21d2f73d58941bab574",
        "to": "0xd570bf4598d3ccf214e288dd92222b8bd3134984",
        "gas": "0x38d5d",
        "value": "0x0",
        "data": "0xacfee8ed0000000000000000000000007356f4cc77168d0e6f94f1d8e28aea1316852c0d000000000000000000000000000000000000000000000000000000000bebc2000000000000000000000000000000000000000000000000000000000000000003",
        "nonce": "0x9"
      },
      "additionalContracts": [],
      "isFixedGasLimit": false
    }
  ],
  "receipts": [],
  "libraries": [],
  "pending": [
    "0x6330c27219d7b13ef43ac6301f27e7bafda33947973a359a0a58e28d32a391c0",
    "0x6a5553937e5ec73bfae33d6e5ee2a9a228e6dc9b4c7c938200b9a19052c46a5e",
    "0x8dddb0ff1f512ada33d26ea46d35885d742939d469f492b0a3b64ce172377dca",
    "0x31381ce3b5400405c27a3d5599222c8e52b5dd46409588ba88fa3ad363406ebd",
    "0x271ba212ad6824ffde15afb84ed60bb917cf4b3ffdede75e90fd004b7906dc9f"
  ],
  "returns": {},
  "timestamp": 1724496672,
  "chain": 534351,
  "multi": false,
  "commit": "ccd5372"
}