{
  "transactions": [
    {
      "hash": "0x6330c27219d7b13ef43ac6301f27e7bafda33947973a359a0a58e28d32a391c0",
      "transactionType": "CALL",
      "contractName": null,
      "contractAddress": "0xB06c44B2601AB296269dDC081492B266C49C6949",
      "function": "approve(address,uint256)",
      "arguments": [
        "0xD570bF4598D3ccF214E288dd92222b8Bd3134984",
        "1000000000000000000"
      ],
      "transaction": {
        "type": "0x00",
        "from": "0x0000007eabfc2e6a6b33b21d2f73d58941bab574",
        "to": "0xb06c44b2601ab296269ddc081492b266c49c6949",
        "gas": "0x108e9",
        "value": "0x0",
        "data": "0x095ea7b3000000000000000000000000d570bf4598d3ccf214e288dd92222b8bd31349840000000000000000000000000000000000000000000000000de0b6b3a7640000",
        "nonce": "0x5"
      },
      "additionalContracts": [],
      "isFixedGasLimit": false
    },
    {
      "hash": "0x6a5553937e5ec73bfae33d6e5ee2a9a228e6dc9b4c7c938200b9a19052c46a5e",
      "transactionType": "CALL",
      "contractName": null,
      "contractAddress": "0x7356f4cC77168d0e6f94F1d8E28aeA1316852c0d",
      "function": "approve(address,uint256)",
      "arguments": [
        "0xD570bF4598D3ccF214E288dd92222b8Bd3134984",
        "1000000000000000000"
      ],
      "transaction": {
        "type": "0x00",
        "from": "0x0000007eabfc2e6a6b33b21d2f73d58941bab574",
        "to": "0x7356f4cc77168d0e6f94f1d8e28aea1316852c0d",
        "gas": "0x108e9",
        "value": "0x0",
        "data": "0x095ea7b3000000000000000000000000d570bf4598d3ccf214e288dd92222b8bd31349840000000000000000000000000000000000000000000000000de0b6b3a7640000",
        "nonce": "0x6"
      },
      "additionalContracts": [],
      "isFixedGasLimit": false
    },
    {
      "hash": "0x8dddb0ff1f512ada33d26ea46d35885d742939d469f492b0a3b64ce172377dca",
      "transactionType": "CALL",
      "contractName": "FiatOnramp",
      "contractAddress": "0xD570bF4598D3ccF214E288dd92222b8Bd3134984",
      "function": "createOrder(address,uint256,uint256)",
      "arguments": [
        "0xB06c44B2601AB296269dDC081492B266C49C6949",
        "150000000",
        "1"
      ],
      "transaction": {
        "type": "0x00",
        "from": "0x0000007eabfc2e6a6b33b21d2f73d58941bab574",
        "to": "0xd570bf4598d3ccf214e288dd92222b8bd3134984",
        "gas": "0x4864f",
        "value": "0x0",
        "data": "0xacfee8ed000000000000000000000000b06c44b2601ab296269ddc081492b266c49c69490000000000000000000000000000000000000000000000000000000008f0d1800000000000000000000000000000000000000000000000000000000000000001",
        "nonce": "0x7"
      },
      "additionalContracts": [],
      "isFixedGasLimit": false
    },
    {
      "hash": "0x31381ce3b5400405c27a3d5599222c8e52b5dd46409588ba88fa3ad363406ebd",
      "transactionType": "CALL",
      "contractName": "FiatOnramp",
      "contractAddress": "0xD570bF4598D3ccF214E288dd92222b8Bd3134984",
      "function": "createOrder(address,uint256,uint256)",
      "arguments": [
        "0x7356f4cC77168d0e6f94F1d8E28aeA1316852c0d",
        "100000000",
        "2"
      ],
      "transaction": {
        "type": "0x00",
        "from": "0x0000007eabfc2e6a6b33b21d2f73d58941bab574",
        "to": "0xd570bf4598d3ccf214e288dd92222b8bd3134984",
        "gas": "0x4248d",
        "value": "0x0",
        "data": "0xacfee8ed0000000000000000000000007356f4cc77168d0e6f94f1d8e28aea1316852c0d0000000000000000000000000000000000000000000000000000000005f5e1000000000000000000000000000000000000000000000000000000000000000002",
        "nonce": "0x8"
      },
      "additionalContracts": [],
      "isFixedGasLimit": false
    },
    {
      "hash": "0x271ba212ad6824ffde15afb84ed60bb917cf4b3ffdede75e90fd004b7906dc9f",
      "transactionType": "CALL",
      "contractName": "FiatOnramp",
      "contractAddress": "0xD570bF4598D3ccF214E288dd92222b8Bd3134984",
      "function": "createOrder(address,uint256,uint256)",
      "arguments": [
        "0x7356f4cC77168d0e6f94F1d8E28aeA1316852c0d",
        "200000000",
        "3"
      ],
      "transaction": {
        "type": "0x00",
        "from": "0x0000007eabfc2e6a6b33b21d2f73d58941bab574",
        "to": "0xd570bf4598d3ccf214e288dd92222b8bd3134984",
        "gas": "0x38d5d",
        "value": "0x0",
        "data": "0xacfee8ed0000000000000000000000007356f4cc77168d0e6f94f1d8e28aea1316852c0d000000000000000000000000000000000000000000000000000000000bebc2000000000000000000000000000000000000000000000000000000000000000003",
        "nonce": "0x9"
      },
      "additionalContracts": [],
      "isFixedGasLimit": false
    }
  ],
  "receipts": [
    {
      "transactionHash": "0x6330c27219d7b13ef43ac6301f27e7bafda33947973a359a0a58e28d32a391c0",
      "transactionIndex": "0x0",
      "blockHash": "0x5a4d6f36fb283199534664462b69856906905ba3015d26a6a494db3e1f5bfefe",
      "blockNumber": "0x6006df",
      "from": "0x0000007EabfC2E6a6b33b21D2f73D58941BAb574",
      "to": "0xB06c44B2601AB296269dDC081492B266C49C6949",
      "cumulativeGasUsed": "0xb523",
      "gasUsed": "0xb523",
      "contractAddress": null,
      "logs": [
        {
          "address": "0xB06c44B2601AB296269dDC081492B266C49C6949",
          "topics": [
            "0x8c5be1e5ebec7d5bd14f71427d1e84f3dd0314c0f7b2291e5b200ac8c7c3b925",
            "0x0000000000000000000000000000007eabfc2e6a6b33b21d2f73d58941bab574",
            "0x000000000000000000000000d570bf4598d3ccf214e288dd92222b8bd3134984"
          ],
          "data": "0x0000000000000000000000000000000000000000000000000de0b6b3a7640000",
          "blockHash": "0x5a4d6f36fb283199534664462b69856906905ba3015d26a6a494db3e1f5bfefe",
          "blockNumber": "0x6006df",
          "transactionHash": "0x6330c27219d7b13ef43ac6301f27e7bafda33947973a359a0a58e28d32a391c0",
          "transactionIndex": "0x0",
          "logIndex": "0x0",
          "removed": false
        }
      ],
      "status": "0x1",
      "logsBloom": "0x00000000000000000000000000200000000000000000000000020000000000000000000000000000000000000000000000000000000000000000000000200000000008000000000000000000000000000000000000000000000000000000000000000000000000000000000000000000000000000000000000000000000000000000000000004000000000000000000000040000000000000000800000000000020000000000000000000000000000000000000000000001000000000000000000000000000000000000000004000000400000000000000000000000000000000010000000000000000000000000000000000000000000000000000000000000",
      "type": "0x0",
      "effectiveGasPrice": "0xcd98bbb"
    },
    {
      "transactionHash": "0x6a5553937e5ec73bfae33d6e5ee2a9a228e6dc9b4c7c938200b9a19052c46a5e",
      "transactionIndex": "0x0",
      "blockHash": "0x1a04e2076cff04837001a4f2ea62b35472106faba79b9f8ea1a95cf466415d09",
      "blockNumber": "0x6006e0",
      "from": "0x0000007EabfC2E6a6b33b21D2f73D58941BAb574",
      "to": "0x7356f4cC77168d0e6f94F1d8E28aeA1316852c0d",
      "cumulativeGasUsed": "0xb523",
      "gasUsed": "0xb523",
      "contractAddress": null,
      "logs": [
        {
          "address": "0x7356f4cC77168d0e6f94F1d8E28aeA1316852c0d",
          "topics": [
            "0x8c5be1e5ebec7d5bd14f71427d1e84f3dd0314c0f7b2291e5b200ac8c7c3b925",
            "0x0000000000000000000000000000007eabfc2e6a6b33b21d2f73d58941bab574",
            "0x000000000000000000000000d570bf4598d3ccf214e288dd92222b8bd3134984"
          ],
          "data": "0x0000000000000000000000000000000000000000000000000de0b6b3a7640000",
          "blockHash": "0x1a04e2076cff04837001a4f2ea62b35472106faba79b9f8ea1a95cf466415d09",
          "blockNumber": "0x6006e0",
          "transactionHash": "0x6a5553937e5ec73bfae33d6e5ee2a9a228e6dc9b4c7c938200b9a19052c46a5e",
          "transactionIndex": "0x0",
          "logIndex": "0x0",
          "removed": false
        }
      ],
      "status": "0x1",
      "logsBloom": "0x00000000000000000000000800200000000000000000000000020000000000000000000000000000000000000000000000000000000000000000000000200000000008000000000000000000000000000000000000000000000000000000000000000000000000000000008000000000000000000000000000000000000000000000000000000000000000000000000000040000000000000000800000000000020000000000200000000000000000000000000000000001000000000000000000000000000000000000000000000000000000000000000000000000000000000010000000000000000000000000000000000000000000000000000000000000",
      "type": "0x0",
      "effectiveGasPrice": "0xcd98bbb"
    },
    {
      "transactionHash": "0x8dddb0ff1f512ada33d26ea46d35885d742939d469f492b0a3b64ce172377dca",
      "transactionIndex": "0x1",
      "blockHash": "0x7b0ff8787768ad237ef328604c3a25d28e9e350e5e81a070e20abf7ee6127f2a",
      "blockNumber": "0x6006e1",
      "from": "0x0000007EabfC2E6a6b33b21D2f73D58941BAb574",
      "to": "0xD570bF4598D3ccF214E288dd92222b8Bd3134984",
      "cumulativeGasUsed": "0x36a0a",
      "gasUsed": "0x31802",
      "contractAddress": null,
      "logs": [
        {
          "address": "0xB06c44B2601AB296269dDC081492B266C49C6949",
          "topics": [
            "0xddf252ad1be2c89b69c2b068fc378daa952ba7f163c4a11628f55a4df523b3ef",
            "0x0000000000000000000000000000007eabfc2e6a6b33b21d2f73d58941bab574",
            "0x000000000000000000000000d570bf4598d3ccf214e288dd92222b8bd3134984"
          ],
          "data": "0x0000000000000000000000000000000000000000000000000000000008f0d180",
          "blockHash": "0x7b0ff8787768ad237ef328604c3a25d28e9e350e5e81a070e20abf7ee6127f2a",
          "blockNumber": "0x6006e1",
          "transactionHash": "0x8dddb0ff1f512ada33d26ea46d35885d742939d469f492b0a3b64ce172377dca",
          "transactionIndex": "0x1",
          "logIndex": "0x0",
          "removed": false
        },
        {
          "address": "0xD570bF4598D3ccF214E288dd92222b8Bd3134984",
          "topics": [
            "0x5f88d55333195757ca319aa0ac617520059267f8245f2067982a6caaf6916b81",
            "0x0000000000000000000000000000000000000000000000000000000000000001",
            "0x0000000000000000000000000000007eabfc2e6a6b33b21d2f73d58941bab574",
            "0x000000000000000000000000b06c44b2601ab296269ddc081492b266c49c6949"
          ],
          "data": "0x0000000000000000000000000000000000000000000000000000000008f0d1800000000000000000000000000000000000000000000000000000000000000001",
          "blockHash": "0x7b0ff8787768ad237ef328604c3a25d28e9e350e5e81a070e20abf7ee6127f2a",
          "blockNumber": "0x6006e1",
          "transactionHash": "0x8dddb0ff1f512ada33d26ea46d35885d742939d469f492b0a3b64ce172377dca",
          "transactionIndex": "0x1",
          "logIndex": "0x1",
          "removed": false
        }
      ],
      "status": "0x1",
      "logsBloom": "0x00000000000000000000000000200000000000000000000000020000000000000000000000000000000000000000000000000000000000000000000000040000000008000000000001000008004000000000000000040000000000000000000000000000000000000000000000000000000000000000000000000010000000000000000000004000000000000010000000040000000000000000800000000000000000000000000000000000000000000008000000000001000000000000000000000002000000002000000004000000400000100000000000000000000040000000000000000000000000004000200000000000000000000000000000000000",
      "type": "0x0",
      "effectiveGasPrice": "0xcd98bbb"
    },
    {
      "transactionHash": "0x31381ce3b5400405c27a3d5599222c8e52b5dd46409588ba88fa3ad363406ebd",
      "transactionIndex": "0x2",
      "blockHash": "0x7b0ff8787768ad237ef328604c3a25d28e9e350e5e81a070e20abf7ee6127f2a",
      "blockNumber": "0x6006e1",
      "from": "0x0000007EabfC2E6a6b33b21D2f73D58941BAb574",
      "to": "0xD570bF4598D3ccF214E288dd92222b8Bd3134984",
      "cumulativeGasUsed": "0x63f34",
      "gasUsed": "0x2d52a",
      "contractAddress": null,
      "logs": [
        {
          "address": "0x7356f4cC77168d0e6f94F1d8E28aeA1316852c0d",
          "topics": [
            "0xddf252ad1be2c89b69c2b068fc378daa952ba7f163c4a11628f55a4df523b3ef",
            "0x0000000000000000000000000000007eabfc2e6a6b33b21d2f73d58941bab574",
            "0x000000000000000000000000d570bf4598d3ccf214e288dd92222b8bd3134984"
          ],
          "data": "0x0000000000000000000000000000000000000000000000000000000005f5e100",
          "blockHash": "0x7b0ff8787768ad237ef328604c3a25d28e9e350e5e81a070e20abf7ee6127f2a",
          "blockNumber": "0x6006e1",
          "transactionHash": "0x31381ce3b5400405c27a3d5599222c8e52b5dd46409588ba88fa3ad363406ebd",
          "transactionIndex": "0x2",
          "logIndex": "0x2",
          "removed": false
        },
        {
          "address": "0xD570bF4598D3ccF214E288dd92222b8Bd3134984",
          "topics": [
            "0x5f88d55333195757ca319aa0ac617520059267f8245f2067982a6caaf6916b81",
            "0x0000000000000000000000000000000000000000000000000000000000000002",
            "0x0000000000000000000000000000007eabfc2e6a6b33b21d2f73d58941bab574",
            "0x0000000000000000000000007356f4cc77168d0e6f94f1d8e28aea1316852c0d"
          ],
          "data": "0x0000000000000000000000000000000000000000000000000000000005f5e1000000000000000000000000000000000000000000000000000000000000000002",
          "blockHash": "0x7b0ff8787768ad237ef328604c3a25d28e9e350e5e81a070e20abf7ee6127f2a",
          "blockNumber": "0x6006e1",
          "transactionHash": "0x31381ce3b5400405c27a3d5599222c8e52b5dd46409588ba88fa3ad363406ebd",
          "transactionIndex": "0x2",
          "logIndex": "0x3",
          "removed": false
        }
      ],
      "status": "0x1",
      "logsBloom": "0x04000000000000000000000800200000000000000000000000020000000000000000000000000000000000000000000000000000000000000000000000000000000008000000000000000008004000000000000000000000000000000000000000000000000000000000008000000000000000000000000000000010000004000000000000000000000000000010000000040000000000000000800000000000000000000000200000000100000000000000000000000001000000000000000000000002000000002000000000000000000020100000000000000000000000000000000000000000000000000000200000000000008000000001000000000000",
      "type": "0x0",
      "effectiveGasPrice": "0xcd98bbb"
    },
    {
      "transactionHash": "0x271ba212ad6824ffde15afb84ed60bb917cf4b3ffdede75e90fd004b7906dc9f",
      "transactionIndex": "0x3",
      "blockHash": "0x7b0ff8787768ad237ef328604c3a25d28e9e350e5e81a070e20abf7ee6127f2a",
      "blockNumber": "0x6006e1",
      "from": "0x0000007EabfC2E6a6b33b21D2f73D58941BAb574",
      "to": "0xD570bF4598D3ccF214E288dd92222b8Bd3134984",
      "cumulativeGasUsed": "0x8d192",
      "gasUsed": "0x2925e",
      "contractAddress": null,
      "logs": [
        {
          "address": "0x7356f4cC77168d0e6f94F1d8E28aeA1316852c0d",
          "topics": [
            "0xddf252ad1be2c89b69c2b068fc378daa952ba7f163c4a11628f55a4df523b3ef",
            "0x0000000000000000000000000000007eabfc2e6a6b33b21d2f73d58941bab574",
            "0x000000000000000000000000d570bf4598d3ccf214e288dd92222b8bd3134984"
          ],
          "data": "0x000000000000000000000000000000000000000000000000000000000bebc200",
          "blockHash": "0x7b0ff8787768ad237ef328604c3a25d28e9e350e5e81a070e20abf7ee6127f2a",
          "blockNumber": "0x6006e1",
          "transactionHash": "0x271ba212ad6824ffde15afb84ed60bb917cf4b3ffdede75e90fd004b7906dc9f",
          "transactionIndex": "0x3",
          "logIndex": "0x4",
          "removed": false
        },
        {
          "address": "0xD570bF4598D3ccF214E288dd92222b8Bd3134984",
          "topics": [
            "0x5f88d55333195757ca319aa0ac617520059267f8245f2067982a6caaf6916b81",
            "0x0000000000000000000000000000000000000000000000000000000000000003",
            "0x0000000000000000000000000000007eabfc2e6a6b33b21d2f73d58941bab574",
            "0x0000000000000000000000007356f4cc77168d0e6f94f1d8e28aea1316852c0d"
          ],
          "data": "0x000000000000000000000000000000000000000000000000000000000bebc2000000000000000000000000000000000000000000000000000000000000000003",
          "blockHash": "0x7b0ff8787768ad237ef328604c3a25d28e9e350e5e81a070e20abf7ee6127f2a",
          "blockNumber": "0x6006e1",
          "transactionHash": "0x271ba212ad6824ffde15afb84ed60bb917cf4b3ffdede75e90fd004b7906dc9f",
          "transactionIndex": "0x3",
          "logIndex": "0x5",
          "removed": false
        }
      ],
      "status": "0x1",
      "logsBloom": "0x00000000000000000000000800200000000000000000000000020000000000000000000000000000000000000000000000000000020000000000000000000000000008000000000000000008004000000000000000000000000000000000000000000000000000000000008000000000000000000000000000000010000004000000000000000000000000000010000000040000000000000000800000000000000000000000200000000000000000000000000000800001000000000000400000000002000000002000000000000000000020100000000000000000000000000000000000000000000000000000200000000000000000000001000000000000",
      "type": "0x0",
      "effectiveGasPrice": "0xcd98bbb"
    }
  ],
  "libraries": [],
  "pending": [],
  "returns": {},
  "timestamp": 1724496685,
  "chain": 534351,
  "multi": false,
  "commit": "ccd5372"
}