{
  "transactions": [
    {
      "hash": "0x95ef82c542f3e461cbc64f22183d3d66e578e342ad616c06ae83f570f7377a1a",
      "transactionType": "CREATE",
      "contractName": "StubVerifier",
      "contractAddress": "0x61aE9259C8dc1Ad08C7786E6158733c42c250e77",
      "function": null,
      "arguments": null,
      "transaction": {
        "type": "0x02",
        "from": "0x0000007eabfc2e6a6b33b21d2f73d58941bab574",
        "gas": "0x5b8f3",
        "value": "0x0",
        "data": "0x608060405234801561001057600080fd5b50610442806100206000396000f3fe608060405234801561001057600080fd5b506004361061002b5760003560e01c8063a960e69e14610030575b600080fd5b61004461003e366004610307565b50600190565b604051901515815260200160405180910390f35b634e487b7160e01b600052604160045260246000fd5b6040805190810167ffffffffffffffff8111828210171561009157610091610058565b60405290565b6040516080810167ffffffffffffffff8111828210171561009157610091610058565b6040516060810167ffffffffffffffff8111828210171561009157610091610058565b604051601f8201601f1916810167ffffffffffffffff8111828210171561010657610106610058565b604052919050565b600067ffffffffffffffff83111561012857610128610058565b61013b601f8401601f19166020016100dd565b905082815283838301111561014f57600080fd5b828260208301376000602084830101529392505050565b600082601f83011261017757600080fd5b6101868383356020850161010e565b9392505050565b803563ffffffff811681146101a157600080fd5b919050565b600082601f8301126101b757600080fd5b8135602067ffffffffffffffff808311156101d4576101d4610058565b8260051b6101e38382016100dd565b93845285810183019383810190888611156101fd57600080fd5b84880192505b8583101561024e5782358481111561021b5760008081fd5b8801603f81018a1361022d5760008081fd5b61023e8a878301356040840161010e565b8352509184019190840190610203565b98975050505050505050565b600081830360a081121561026d57600080fd5b61027561006e565b9150608081121561028557600080fd5b5061028e610097565b8235815260208301356001600160a01b03811681146102ac57600080fd5b60208201526102bd6040840161018d565b60408201526102ce6060840161018d565b60608201528152608082013567ffffffffffffffff8111156102ef57600080fd5b6102fb848285016101a6565b60208301525092915050565b60006020828403121561031957600080fd5b813567ffffffffffffffff8082111561033157600080fd5b908301906040828603121561034557600080fd5b61034d61006e565b82358281111561035c57600080fd5b83016060818803121561036e57600080fd5b6103766100ba565b81358481111561038557600080fd5b61039189828501610166565b8252506020820135848111156103a657600080fd5b6103b289828501610166565b6020830152506040820135848111156103ca57600080fd5b6103d689828501610166565b6040830152508252506020830135828111156103f157600080fd5b6103fd8782860161025a565b6020830152509594505050505056fea26469706673582212207111abe1c0aed1b94cf526849632dbaf02f04792377a0c561e9c8a569b97e3aa64736f6c63430008180033",
        "nonce": "0x0",
        "accessList": []
      },
      "additionalContracts": [],
      "isFixedGasLimit": false
    },
    {
      "hash": "0xcb2686c732893211dc4a260e37f71ada887f406e442442365d7755c10be5c598",
      "transactionType": "CREATE",
      "contractName": "FiatOnramp",
      "contractAddress": "0x8b3340EFcB90e586Edf0790538c7f3730560D4b3",
      "function": null,
      "arguments": [
        "0x61aE9259C8dc1Ad08C7786E6158733c42c250e77"
      ],
      "transaction": {
        "type": "0x02",
        "from": "0x0000007eabfc2e6a6b33b21d2f73d58941bab574",
        "gas": "0x155daf",
        "value": "0x0",
        "data": "0x60a060405234801561001057600080fd5b506040516112a93803806112a983398101604081905261002f91610049565b6001600160a01b0316608052600180556000600255610079565b60006020828403121561005b57600080fd5b81516001600160a01b038116811461007257600080fd5b9392505050565b60805161120e61009b600039600081816101ea015261033c015261120e6000f3fe60806040526004361061007f5760003560e01c8063a85c38ef1161004e578063a85c38ef14610118578063acfee8ed146101a2578063aec0238f146101c2578063d9d64d07146101d857600080fd5b80630b1603e51461008b5780632a58b330146100ad578063539641f3146100d65780639be85f68146100f857600080fd5b3661008657005b600080fd5b34801561009757600080fd5b506100ab6100a6366004610d8e565b610224565b005b3480156100b957600080fd5b506100c360015481565b6040519081526020015b60405180910390f35b3480156100e257600080fd5b506100eb6104e0565b6040516100cd9190610ea7565b34801561010457600080fd5b506100ab610113366004610f21565b61063b565b34801561012457600080fd5b5061016e610133366004610f8d565b6000602081905290815260409020805460018201546002830154600384015460049094015492936001600160a01b0392831693929091169185565b604080519586526001600160a01b03948516602087015292909316918401919091526060830152608082015260a0016100cd565b3480156101ae57600080fd5b506100ab6101bd366004610fa6565b6106d3565b3480156101ce57600080fd5b506100c360025481565b3480156101e457600080fd5b5061020c7f000000000000000000000000000000000000000000000000000000000000000081565b6040516001600160a01b0390911681526020016100cd565b60008381526020818152604091829020825160a0810184528154815260018201546001600160a01b0390811693820184905260028301541693810193909352600381015460608401526004015460808301526102c75760405162461bcd60e51b815260206004820181905260248201527f466961744f6e72616d703a206f7264657220646f6573206e6f7420657869737460448201526064015b60405180910390fd5b818160800151146103255760405162461bcd60e51b815260206004820152602260248201527f466961744f6e72616d703a20696e76616c696420636f6e646974696f6e2068616044820152610e6d60f31b60648201526084016102be565b6040516354b0734f60e11b81526001600160a01b037f0000000000000000000000000000000000000000000000000000000000000000169063a960e69e90610371908690600401611029565b602060405180830381865afa15801561038e573d6000803e3d6000fd5b505050506040513d601f19601f820116820180604052508101906103b2919061113e565b6103fe5760405162461bcd60e51b815260206004820152601960248201527f466961744f6e72616d703a20696e76616c69642070726f6f660000000000000060448201526064016102be565b60008481526020819052604081208181556001810180546001600160a01b03199081169091556002808301805490921690915560038201839055600490910182905580549161044c83611176565b919050555061047733826060015183604001516001600160a01b03166106e39092919063ffffffff16565b80604001516001600160a01b031681602001516001600160a01b0316857f88af4c696532bdbd05ad505c8c3f6c6dd786ab24777c70949ebb2a6ec2a3020d8460600151866040516104d2929190918252602082015260400190565b60405180910390a450505050565b6060600060025467ffffffffffffffff8111156104ff576104ff610ae4565b60405190808252806020026020018201604052801561057457816020015b6105616040518060a001604052806000815260200160006001600160a01b0316815260200160006001600160a01b0316815260200160008152602001600081525090565b81526020019060019003908161051d5790505b509050600060015b600154811015610633576000818152602081905260409020600101546001600160a01b03161561062b5760008181526020818152604091829020825160a0810184528154815260018201546001600160a01b039081169382019390935260028201549092169282019290925260038201546060820152600490910154608082015283518490849081106106115761061161118d565b60200260200101819052508180610627906111a3565b9250505b60010161057c565b509092915050565b60405163d505accf60e01b8152336004820152306024820152604481018790526064810185905260ff8416608482015260a4810183905260c481018290526001600160a01b0388169063d505accf9060e401600060405180830381600087803b1580156106a757600080fd5b505af11580156106bb573d6000803e3d6000fd5b505050506106ca878787610742565b50505050505050565b6106de838383610742565b505050565b6040516001600160a01b038381166024830152604482018390526106de91859182169063a9059cbb906064015b604051602081830303815290604052915060e01b6020820180516001600160e01b03838183161783525050505061090b565b6001600160a01b0383166107985760405162461bcd60e51b815260206004820152601960248201527f466961744f6e72616d703a20696e76616c696420746f6b656e0000000000000060448201526064016102be565b600082116107fa5760405162461bcd60e51b815260206004820152602960248201527f466961744f6e72616d703a20616d6f756e74206d75737420626520677265617460448201526806572207468616e20360bc1b60648201526084016102be565b61080f6001600160a01b03841633308561096e565b6040805160a081018252600180548083523360208085018281526001600160a01b038a8116878901818152606089018c815260808a018c8152600098895295889052968a902089518155935184890180549185166001600160a01b031992831617905590516002850180549190941691161790915593516003820155905160049091015591549351929390927f5f88d55333195757ca319aa0ac617520059267f8245f2067982a6caaf6916b81906108d39088908890918252602082015260400190565b60405180910390a4600180549060006108eb836111a3565b909155505060028054906000610900836111a3565b919050555050505050565b60006109206001600160a01b038416836109ad565b90508051600014158015610945575080806020019051810190610943919061113e565b155b156106de57604051635274afe760e01b81526001600160a01b03841660048201526024016102be565b6040516001600160a01b0384811660248301528381166044830152606482018390526109a79186918216906323b872dd90608401610710565b50505050565b60606109bb838360006109c2565b9392505050565b6060814710156109e75760405163cd78605960e01b81523060048201526024016102be565b600080856001600160a01b03168486604051610a0391906111bc565b60006040518083038185875af1925050503d8060008114610a40576040519150601f19603f3d011682016040523d82523d6000602084013e610a45565b606091505b5091509150610a55868383610a5f565b9695505050505050565b606082610a7457610a6f82610abb565b6109bb565b8151158015610a8b57506001600160a01b0384163b155b15610ab457604051639996b31560e01b81526001600160a01b03851660048201526024016102be565b50806109bb565b805115610acb5780518082602001fd5b604051630a12f52160e11b815260040160405180910390fd5b634e487b7160e01b600052604160045260246000fd5b6040805190810167ffffffffffffffff81118282101715610b1d57610b1d610ae4565b60405290565b6040516060810167ffffffffffffffff81118282101715610b1d57610b1d610ae4565b604051601f8201601f1916810167ffffffffffffffff81118282101715610b6f57610b6f610ae4565b604052919050565b600067ffffffffffffffff831115610b9157610b91610ae4565b610ba4601f8401601f1916602001610b46565b9050828152838383011115610bb857600080fd5b828260208301376000602084830101529392505050565b600082601f830112610be057600080fd5b6109bb83833560208501610b77565b80356001600160a01b0381168114610c0657600080fd5b919050565b803563ffffffff81168114610c0657600080fd5b600082601f830112610c3057600080fd5b8135602067ffffffffffffffff80831115610c4d57610c4d610ae4565b8260051b610c5c838201610b46565b9384528581018301938381019088861115610c7657600080fd5b84880192505b85831015610cc757823584811115610c945760008081fd5b8801603f81018a13610ca65760008081fd5b610cb78a8783013560408401610b77565b8352509184019190840190610c7c565b98975050505050505050565b600081830360a0811215610ce657600080fd5b610cee610afa565b91506080811215610cfe57600080fd5b506040516080810167ffffffffffffffff8282108183111715610d2357610d23610ae4565b8160405284358352610d3760208601610bef565b6020840152610d4860408601610c0b565b6040840152610d5960608601610c0b565b606084015291835260808401359180831115610d7457600080fd5b5050610d8284828501610c1f565b60208301525092915050565b600080600060608486031215610da357600080fd5b83359250602084013567ffffffffffffffff80821115610dc257600080fd5b9085019060408288031215610dd657600080fd5b610dde610afa565b823582811115610ded57600080fd5b83016060818a031215610dff57600080fd5b610e07610b23565b813584811115610e1657600080fd5b610e228b828501610bcf565b825250602082013584811115610e3757600080fd5b610e438b828501610bcf565b602083015250604082013584811115610e5b57600080fd5b610e678b828501610bcf565b604083015250825250602083013582811115610e8257600080fd5b610e8e89828601610cd3565b6020830152509497949650505050604092909201359150565b602080825282518282018190526000919060409081850190868401855b82811015610f1457815180518552868101516001600160a01b0390811688870152868201511686860152606080820151908601526080908101519085015260a09093019290850190600101610ec4565b5091979650505050505050565b600080600080600080600060e0888a031215610f3c57600080fd5b610f4588610bef565b9650602088013595506040880135945060608801359350608088013560ff81168114610f7057600080fd5b9699959850939692959460a0840135945060c09093013592915050565b600060208284031215610f9f57600080fd5b5035919050565b600080600060608486031215610fbb57600080fd5b610fc484610bef565b95602085013595506040909401359392505050565b60005b83811015610ff4578181015183820152602001610fdc565b50506000910152565b60008151808452611015816020860160208601610fd9565b601f01601f19169290920160200192915050565b600060208083528351604082850152805160608086015261104d60c0860182610ffd565b905082820151605f198087840301608088015261106a8383610ffd565b925060408401519350808784030160a088015250506110898183610ffd565b83870151601f1987830301604080890191909152815180518452808701516001600160a01b0316848801528082015163ffffffff908116928501929092526060908101519091169083015284015160a06080830181905281519083018190529193508401915060c0600582901b84018101919084019060005b818110156111305760bf1986850301835261111e848651610ffd565b94870194935091860191600101611102565b509198975050505050505050565b60006020828403121561115057600080fd5b815180151581146109bb57600080fd5b634e487b7160e01b600052601160045260246000fd5b60008161118557611185611160565b506000190190565b634e487b7160e01b600052603260045260246000fd5b6000600182016111b5576111b5611160565b5060010190565b600082516111ce818460208701610fd9565b919091019291505056fea264697066735822122064676f2fdec7c3c7512838a177dd157d50aa0e01cabf653bc287538b9ce9df2864736f6c6343000818003300000000000000000000000061ae9259c8dc1ad08c7786e6158733c42c250e77",
        "nonce": "0x1",
        "accessList": []
      },
      "additionalContracts": [],
      "isFixedGasLimit": false
    },
    {
      "hash": "0x746c91f32592457219642774a6a02e69ed0650be7521cd3b1fd274fa5892a51d",
      "transactionType": "CREATE",
      "contractName": "USDT",
      "contractAddress": "0xD570bF4598D3ccF214E288dd92222b8Bd3134984",
      "function": null,
      "arguments": null,
      "transaction": {
        "type": "0x02",
        "from": "0x0000007eabfc2e6a6b33b21d2f73d58941bab574",
        "gas": "0xcdb66",
        "value": "0x0",
        "data": "0x60806040523480156200001157600080fd5b50336040518060400160405280600a81526020016915195d1a195c881554d160b21b815250604051806040016040528060048152602001631554d11560e21b81525081600390816200006491906200034b565b5060046200007382826200034b565b5050506001600160a01b038116620000a657604051631e4fbdf760e01b8152600060048201526024015b60405180910390fd5b620000b181620000e1565b50620000db33620000c56006600a6200052c565b620000d590633b9aca0062000544565b62000133565b62000574565b600580546001600160a01b038381166001600160a01b0319831681179093556040519116919082907f8be0079c531659141344cd1fd0a4f28419497f9722a3daafe3b4186f6b6457e090600090a35050565b6001600160a01b0382166200015f5760405163ec442f0560e01b8152600060048201526024016200009d565b6200016d6000838362000171565b5050565b6001600160a01b038316620001a05780600260008282546200019491906200055e565b90915550620002149050565b6001600160a01b03831660009081526020819052604090205481811015620001f55760405163391434e360e21b81526001600160a01b038516600482015260248101829052604481018390526064016200009d565b6001600160a01b03841660009081526020819052604090209082900390555b6001600160a01b038216620002325760028054829003905562000251565b6001600160a01b03821660009081526020819052604090208054820190555b816001600160a01b0316836001600160a01b03167fddf252ad1be2c89b69c2b068fc378daa952ba7f163c4a11628f55a4df523b3ef836040516200029791815260200190565b60405180910390a3505050565b634e487b7160e01b600052604160045260246000fd5b600181811c90821680620002cf57607f821691505b602082108103620002f057634e487b7160e01b600052602260045260246000fd5b50919050565b601f82111562000346576000816000526020600020601f850160051c81016020861015620003215750805b601f850160051c820191505b8181101562000342578281556001016200032d565b5050505b505050565b81516001600160401b03811115620003675762000367620002a4565b6200037f81620003788454620002ba565b84620002f6565b602080601f831160018114620003b757600084156200039e5750858301515b600019600386901b1c1916600185901b17855562000342565b600085815260208120601f198616915b82811015620003e857888601518255948401946001909101908401620003c7565b5085821015620004075787850151600019600388901b60f8161c191681555b5050505050600190811b01905550565b634e487b7160e01b600052601160045260246000fd5b600181815b808511156200046e57816000190482111562000452576200045262000417565b808516156200046057918102915b93841c939080029062000432565b509250929050565b600082620004875750600162000526565b81620004965750600062000526565b8160018114620004af5760028114620004ba57620004da565b600191505062000526565b60ff841115620004ce57620004ce62000417565b50506001821b62000526565b5060208310610133831016604e8410600b8410161715620004ff575081810a62000526565b6200050b83836200042d565b806000190482111562000522576200052262000417565b0290505b92915050565b60006200053d60ff84168362000476565b9392505050565b808202811582820484141762000526576200052662000417565b8082018082111562000526576200052662000417565b61084b80620005846000396000f3fe608060405234801561001057600080fd5b50600436106100b45760003560e01c8063715018a611610071578063715018a6146101575780638da5cb5b1461016157806395d89b411461017c578063a9059cbb14610184578063dd62ed3e14610197578063f2fde38b146101d057600080fd5b806306fdde03146100b9578063095ea7b3146100d757806318160ddd146100fa57806323b872dd1461010c578063313ce5671461011f57806370a082311461012e575b600080fd5b6100c16101e3565b6040516100ce9190610694565b60405180910390f35b6100ea6100e53660046106ff565b610275565b60405190151581526020016100ce565b6002545b6040519081526020016100ce565b6100ea61011a366004610729565b61028f565b604051600681526020016100ce565b6100fe61013c366004610765565b6001600160a01b031660009081526020819052604090205490565b61015f6102b3565b005b6005546040516001600160a01b0390911681526020016100ce565b6100c16102c7565b6100ea6101923660046106ff565b6102d6565b6100fe6101a5366004610787565b6001600160a01b03918216600090815260016020908152604080832093909416825291909152205490565b61015f6101de366004610765565b6102e4565b6060600380546101f2906107ba565b80601f016020809104026020016040519081016040528092919081815260200182805461021e906107ba565b801561026b5780601f106102405761010080835404028352916020019161026b565b820191906000526020600020905b81548152906001019060200180831161024e57829003601f168201915b5050505050905090565b600033610283818585610327565b60019150505b92915050565b60003361029d858285610339565b6102a88585856103b7565b506001949350505050565b6102bb610416565b6102c56000610443565b565b6060600480546101f2906107ba565b6000336102838185856103b7565b6102ec610416565b6001600160a01b03811661031b57604051631e4fbdf760e01b8152600060048201526024015b60405180910390fd5b61032481610443565b50565b6103348383836001610495565b505050565b6001600160a01b0383811660009081526001602090815260408083209386168352929052205460001981146103b157818110156103a257604051637dc7a0d960e11b81526001600160a01b03841660048201526024810182905260448101839052606401610312565b6103b184848484036000610495565b50505050565b6001600160a01b0383166103e157604051634b637e8f60e11b815260006004820152602401610312565b6001600160a01b03821661040b5760405163ec442f0560e01b815260006004820152602401610312565b61033483838361056a565b6005546001600160a01b031633146102c55760405163118cdaa760e01b8152336004820152602401610312565b600580546001600160a01b038381166001600160a01b0319831681179093556040519116919082907f8be0079c531659141344cd1fd0a4f28419497f9722a3daafe3b4186f6b6457e090600090a35050565b6001600160a01b0384166104bf5760405163e602df0560e01b815260006004820152602401610312565b6001600160a01b0383166104e957604051634a1406b160e11b815260006004820152602401610312565b6001600160a01b03808516600090815260016020908152604080832093871683529290522082905580156103b157826001600160a01b0316846001600160a01b03167f8c5be1e5ebec7d5bd14f71427d1e84f3dd0314c0f7b2291e5b200ac8c7c3b9258460405161055c91815260200190565b60405180910390a350505050565b6001600160a01b03831661059557806002600082825461058a91906107f4565b909155506106079050565b6001600160a01b038316600090815260208190526040902054818110156105e85760405163391434e360e21b81526001600160a01b03851660048201526024810182905260448101839052606401610312565b6001600160a01b03841660009081526020819052604090209082900390555b6001600160a01b03821661062357600280548290039055610642565b6001600160a01b03821660009081526020819052604090208054820190555b816001600160a01b0316836001600160a01b03167fddf252ad1be2c89b69c2b068fc378daa952ba7f163c4a11628f55a4df523b3ef8360405161068791815260200190565b60405180910390a3505050565b60006020808352835180602085015260005b818110156106c2578581018301518582016040015282016106a6565b506000604082860101526040601f19601f8301168501019250505092915050565b80356001600160a01b03811681146106fa57600080fd5b919050565b6000806040838503121561071257600080fd5b61071b836106e3565b946020939093013593505050565b60008060006060848603121561073e57600080fd5b610747846106e3565b9250610755602085016106e3565b9150604084013590509250925092565b60006020828403121561077757600080fd5b610780826106e3565b9392505050565b6000806040838503121561079a57600080fd5b6107a3836106e3565b91506107b1602084016106e3565b90509250929050565b600181811c908216806107ce57607f821691505b6020821081036107ee57634e487b7160e01b600052602260045260246000fd5b50919050565b8082018082111561028957634e487b7160e01b600052601160045260246000fdfea26469706673582212207c20980eddf9a6ed708160329ba0258bb946792bbaee42959743791251faf0c064736f6c63430008180033",
        "nonce": "0x2",
        "accessList": []
      },
      "additionalContracts": [],
      "isFixedGasLimit": false
    },
    {
      "hash": "0x33f018c92d93bb7ca8e4a94a072ed18e26d10f8dd78a76e42d9785169bacb464",
      "transactionType": "CREATE",
      "contractName": "USDC",
      "contractAddress": "0xB06c44B2601AB296269dDC081492B266C49C6949",
      "function": null,
      "arguments": null,
      "transaction": {
        "type": "0x02",
        "from": "0x0000007eabfc2e6a6b33b21d2f73d58941bab574",
        "gas": "0xcdb66",
        "value": "0x0",
        "data": "0x60806040523480156200001157600080fd5b50336040518060400160405280600a81526020016910da5c98db19481554d160b21b815250604051806040016040528060048152602001635553444360e01b81525081600390816200006491906200034b565b5060046200007382826200034b565b5050506001600160a01b038116620000a657604051631e4fbdf760e01b8152600060048201526024015b60405180910390fd5b620000b181620000e1565b50620000db33620000c56006600a6200052c565b620000d590633b9aca0062000544565b62000133565b62000574565b600580546001600160a01b038381166001600160a01b0319831681179093556040519116919082907f8be0079c531659141344cd1fd0a4f28419497f9722a3daafe3b4186f6b6457e090600090a35050565b6001600160a01b0382166200015f5760405163ec442f0560e01b8152600060048201526024016200009d565b6200016d6000838362000171565b5050565b6001600160a01b038316620001a05780600260008282546200019491906200055e565b90915550620002149050565b6001600160a01b03831660009081526020819052604090205481811015620001f55760405163391434e360e21b81526001600160a01b038516600482015260248101829052604481018390526064016200009d565b6001600160a01b03841660009081526020819052604090209082900390555b6001600160a01b038216620002325760028054829003905562000251565b6001600160a01b03821660009081526020819052604090208054820190555b816001600160a01b0316836001600160a01b03167fddf252ad1be2c89b69c2b068fc378daa952ba7f163c4a11628f55a4df523b3ef836040516200029791815260200190565b60405180910390a3505050565b634e487b7160e01b600052604160045260246000fd5b600181811c90821680620002cf57607f821691505b602082108103620002f057634e487b7160e01b600052602260045260246000fd5b50919050565b601f82111562000346576000816000526020600020601f850160051c81016020861015620003215750805b601f850160051c820191505b8181101562000342578281556001016200032d565b5050505b505050565b81516001600160401b03811115620003675762000367620002a4565b6200037f81620003788454620002ba565b84620002f6565b602080601f831160018114620003b757600084156200039e5750858301515b600019600386901b1c1916600185901b17855562000342565b600085815260208120601f198616915b82811015620003e857888601518255948401946001909101908401620003c7565b5085821015620004075787850151600019600388901b60f8161c191681555b5050505050600190811b01905550565b634e487b7160e01b600052601160045260246000fd5b600181815b808511156200046e57816000190482111562000452576200045262000417565b808516156200046057918102915b93841c939080029062000432565b509250929050565b600082620004875750600162000526565b81620004965750600062000526565b8160018114620004af5760028114620004ba57620004da565b600191505062000526565b60ff841115620004ce57620004ce62000417565b50506001821b62000526565b5060208310610133831016604e8410600b8410161715620004ff575081810a62000526565b6200050b83836200042d565b806000190482111562000522576200052262000417565b0290505b92915050565b60006200053d60ff84168362000476565b9392505050565b808202811582820484141762000526576200052662000417565b8082018082111562000526576200052662000417565b61084b80620005846000396000f3fe608060405234801561001057600080fd5b50600436106100b45760003560e01c8063715018a611610071578063715018a6146101575780638da5cb5b1461016157806395d89b411461017c578063a9059cbb14610184578063dd62ed3e14610197578063f2fde38b146101d057600080fd5b806306fdde03146100b9578063095ea7b3146100d757806318160ddd146100fa57806323b872dd1461010c578063313ce5671461011f57806370a082311461012e575b600080fd5b6100c16101e3565b6040516100ce9190610694565b60405180910390f35b6100ea6100e53660046106ff565b610275565b60405190151581526020016100ce565b6002545b6040519081526020016100ce565b6100ea61011a366004610729565b61028f565b604051600681526020016100ce565b6100fe61013c366004610765565b6001600160a01b031660009081526020819052604090205490565b61015f6102b3565b005b6005546040516001600160a01b0390911681526020016100ce565b6100c16102c7565b6100ea6101923660046106ff565b6102d6565b6100fe6101a5366004610787565b6001600160a01b03918216600090815260016020908152604080832093909416825291909152205490565b61015f6101de366004610765565b6102e4565b6060600380546101f2906107ba565b80601f016020809104026020016040519081016040528092919081815260200182805461021e906107ba565b801561026b5780601f106102405761010080835404028352916020019161026b565b820191906000526020600020905b81548152906001019060200180831161024e57829003601f168201915b5050505050905090565b600033610283818585610327565b60019150505b92915050565b60003361029d858285610339565b6102a88585856103b7565b506001949350505050565b6102bb610416565b6102c56000610443565b565b6060600480546101f2906107ba565b6000336102838185856103b7565b6102ec610416565b6001600160a01b03811661031b57604051631e4fbdf760e01b8152600060048201526024015b60405180910390fd5b61032481610443565b50565b6103348383836001610495565b505050565b6001600160a01b0383811660009081526001602090815260408083209386168352929052205460001981146103b157818110156103a257604051637dc7a0d960e11b81526001600160a01b03841660048201526024810182905260448101839052606401610312565b6103b184848484036000610495565b50505050565b6001600160a01b0383166103e157604051634b637e8f60e11b815260006004820152602401610312565b6001600160a01b03821661040b5760405163ec442f0560e01b815260006004820152602401610312565b61033483838361056a565b6005546001600160a01b031633146102c55760405163118cdaa760e01b8152336004820152602401610312565b600580546001600160a01b038381166001600160a01b0319831681179093556040519116919082907f8be0079c531659141344cd1fd0a4f28419497f9722a3daafe3b4186f6b6457e090600090a35050565b6001600160a01b0384166104bf5760405163e602df0560e01b815260006004820152602401610312565b6001600160a01b0383166104e957604051634a1406b160e11b815260006004820152602401610312565b6001600160a01b03808516600090815260016020908152604080832093871683529290522082905580156103b157826001600160a01b0316846001600160a01b03167f8c5be1e5ebec7d5bd14f71427d1e84f3dd0314c0f7b2291e5b200ac8c7c3b9258460405161055c91815260200190565b60405180910390a350505050565b6001600160a01b03831661059557806002600082825461058a91906107f4565b909155506106079050565b6001600160a01b038316600090815260208190526040902054818110156105e85760405163391434e360e21b81526001600160a01b03851660048201526024810182905260448101839052606401610312565b6001600160a01b03841660009081526020819052604090209082900390555b6001600160a01b03821661062357600280548290039055610642565b6001600160a01b03821660009081526020819052604090208054820190555b816001600160a01b0316836001600160a01b03167fddf252ad1be2c89b69c2b068fc378daa952ba7f163c4a11628f55a4df523b3ef8360405161068791815260200190565b60405180910390a3505050565b60006020808352835180602085015260005b818110156106c2578581018301518582016040015282016106a6565b506000604082860101526040601f19601f8301168501019250505092915050565b80356001600160a01b03811681146106fa57600080fd5b919050565b6000806040838503121561071257600080fd5b61071b836106e3565b946020939093013593505050565b60008060006060848603121561073e57600080fd5b610747846106e3565b9250610755602085016106e3565b9150604084013590509250925092565b60006020828403121561077757600080fd5b610780826106e3565b9392505050565b6000806040838503121561079a57600080fd5b6107a3836106e3565b91506107b1602084016106e3565b90509250929050565b600181811c908216806107ce57607f821691505b6020821081036107ee57634e487b7160e01b600052602260045260246000fd5b50919050565b8082018082111561028957634e487b7160e01b600052601160045260246000fdfea2646970667358221220aaf8cfd93039f89177f1e89ab67d20f5de3b387931a69f1262e8a2b4e9ff97c064736f6c63430008180033",
        "nonce": "0x3",
        "accessList": []
      },
      "additionalContracts": [],
      "isFixedGasLimit": false
    },
    {
      "hash": "0xec2b31d18993d6fc84789f3a9aa04e484a27027583aafed58b98936b4b0d7432",
      "transactionType": "CALL",
      "contractName": "src/USDT.sol:USDT",
      "contractAddress": "0xD570bF4598D3ccF214E288dd92222b8Bd3134984",
      "function": "approve(address,uint256)",
      "arguments": [
        "0x8b3340EFcB90e586Edf0790538c7f3730560D4b3",
        "1000000000000000000"
      ],
      "transaction": {
        "type": "0x02",
        "from": "0x0000007eabfc2e6a6b33b21d2f73d58941bab574",
        "to": "0xd570bf4598d3ccf214e288dd92222b8bd3134984",
        "gas": "0x108e9",
        "value": "0x0",
        "data": "0x095ea7b30000000000000000000000008b3340efcb90e586edf0790538c7f3730560d4b30000000000000000000000000000000000000000000000000de0b6b3a7640000",
        "nonce": "0x4",
        "accessList": []
      },
      "additionalContracts": [],
      "isFixedGasLimit": false
    },
    {
      "hash": "0x84a0ac8a7a14d07b6d5687e4ecc957748df57765298652b95d861e682902d501",
      "transactionType": "CALL",
      "contractName": "src/USDC.sol:USDC",
      "contractAddress": "0xB06c44B2601AB296269dDC081492B266C49C6949",
      "function": "approve(address,uint256)",
      "arguments": [
        "0x8b3340EFcB90e586Edf0790538c7f3730560D4b3",
        "1000000000000000000"
      ],
      "transaction": {
        "type": "0x02",
        "from": "0x0000007eabfc2e6a6b33b21d2f73d58941bab574",
        "to": "0xb06c44b2601ab296269ddc081492b266c49c6949",
        "gas": "0x108e9",
        "value": "0x0",
        "data": "0x095ea7b30000000000000000000000008b3340efcb90e586edf0790538c7f3730560d4b30000000000000000000000000000000000000000000000000de0b6b3a7640000",
        "nonce": "0x5",
        "accessList": []
      },
      "additionalContracts": [],
      "isFixedGasLimit": false
    },
    {
      "hash": "0x78d587afac5531c3a45804bfb4027b07c5a2b89f0fac4312b7d21f8960e6882a",
      "transactionType": "CALL",
      "contractName": "src/FiatOnramp.sol:FiatOnramp",
      "contractAddress": "0x8b3340EFcB90e586Edf0790538c7f3730560D4b3",
      "function": "createOrder(address,uint256,uint256)",
      "arguments": [
        "0xD570bF4598D3ccF214E288dd92222b8Bd3134984",
        "150000000",
        "1"
      ],
      "transaction": {
        "type": "0x02",
        "from": "0x0000007eabfc2e6a6b33b21d2f73d58941bab574",
        "to": "0x8b3340efcb90e586edf0790538c7f3730560d4b3",
        "gas": "0x4864f",
        "value": "0x0",
        "data": "0xacfee8ed000000000000000000000000d570bf4598d3ccf214e288dd92222b8bd31349840000000000000000000000000000000000000000000000000000000008f0d1800000000000000000000000000000000000000000000000000000000000000001",
        "nonce": "0x6",
        "accessList": []
      },
      "additionalContracts": [],
      "isFixedGasLimit": false
    },
    {
      "hash": "0x9e25bae1ce147870c9770e33990d2fa3af0c70ddb7a6ee8d640a7b279faa8e6d",
      "transactionType": "CALL",
      "contractName": "src/FiatOnramp.sol:FiatOnramp",
      "contractAddress": "0x8b3340EFcB90e586Edf0790538c7f3730560D4b3",
      "function": "createOrder(address,uint256,uint256)",
      "arguments": [
        "0xB06c44B2601AB296269dDC081492B266C49C6949",
        "100000000",
        "2"
      ],
      "transaction": {
        "type": "0x02",
        "from": "0x0000007eabfc2e6a6b33b21d2f73d58941bab574",
        "to": "0x8b3340efcb90e586edf0790538c7f3730560d4b3",
        "gas": "0x4248d",
        "value": "0x0",
        "data": "0xacfee8ed000000000000000000000000b06c44b2601ab296269ddc081492b266c49c69490000000000000000000000000000000000000000000000000000000005f5e1000000000000000000000000000000000000000000000000000000000000000002",
        "nonce": "0x7",
        "accessList": []
      },
      "additionalContracts": [],
      "isFixedGasLimit": false
    },
    {
      "hash": "0x49f3e5e31d72604d952468b7a8785c988f32f9095fa7c2646aec5e71d7bcbe26",
      "transactionType": "CALL",
      "contractName": "src/FiatOnramp.sol:FiatOnramp",
      "contractAddress": "0x8b3340EFcB90e586Edf0790538c7f3730560D4b3",
      "function": "createOrder(address,uint256,uint256)",
      "arguments": [
        "0xB06c44B2601AB296269dDC081492B266C49C6949",
        "200000000",
        "3"
      ],
      "transaction": {
        "type": "0x02",
        "from": "0x0000007eabfc2e6a6b33b21d2f73d58941bab574",
        "to": "0x8b3340efcb90e586edf0790538c7f3730560d4b3",
        "gas": "0x38d5d",
        "value": "0x0",
        "data": "0xacfee8ed000000000000000000000000b06c44b2601ab296269ddc081492b266c49c6949000000000000000000000000000000000000000000000000000000000bebc2000000000000000000000000000000000000000000000000000000000000000003",
        "nonce": "0x8",
        "accessList": []
      },
      "additionalContracts": [],
      "isFixedGasLimit": false
    }
  ],
  "receipts": [
    {
      "transactionHash": "0x95ef82c542f3e461cbc64f22183d3d66e578e342ad616c06ae83f570f7377a1a",
      "transactionIndex": "0x0",
      "blockHash": "0xf38daf7ec0ae9acba834a3cea1fe0770bd0b906a708400d340aef2aec50e666a",
      "blockNumber": "0x374ced",
      "from": "0x0000007EabfC2E6a6b33b21D2f73D58941BAb574",
      "to": null,
      "cumulativeGasUsed": "0x466e3",
      "gasUsed": "0x466e3",
      "contractAddress": "0x61aE9259C8dc1Ad08C7786E6158733c42c250e77",
      "logs": [],
      "status": "0x1",
      "logsBloom": "0x00000000000000000000000000000000000000000000000000000000000000000000000000000000000000000000000000000000000000000000000000000000000000000000000000000000000000000000000000000000000000000000000000000000000000000000000000000000000000000000000000000000000000000000000000000000000000000000000000000000000000000000000000000000000000000000000000000000000000000000000000000000000000000000000000000000000000000000000000000000000000000000000000000000000000000000000000000000000000000000000000000000000000000000000000000000",
      "type": "0x2",
      "effectiveGasPrice": "0x104c533c00"
    },
    {
      "transactionHash": "0xcb2686c732893211dc4a260e37f71ada887f406e442442365d7755c10be5c598",
      "transactionIndex": "0x1",
      "blockHash": "0xf38daf7ec0ae9acba834a3cea1fe0770bd0b906a708400d340aef2aec50e666a",
      "blockNumber": "0x374ced",
      "from": "0x0000007EabfC2E6a6b33b21D2f73D58941BAb574",
      "to": null,
      "cumulativeGasUsed": "0x14d656",
      "gasUsed": "0x106f73",
      "contractAddress": "0x8b3340EFcB90e586Edf0790538c7f3730560D4b3",
      "logs": [],
      "status": "0x1",
      "logsBloom": "0x00000000000000000000000000000000000000000000000000000000000000000000000000000000000000000000000000000000000000000000000000000000000000000000000000000000000000000000000000000000000000000000000000000000000000000000000000000000000000000000000000000000000000000000000000000000000000000000000000000000000000000000000000000000000000000000000000000000000000000000000000000000000000000000000000000000000000000000000000000000000000000000000000000000000000000000000000000000000000000000000000000000000000000000000000000000",
      "type": "0x2",
      "effectiveGasPrice": "0x104c533c00"
    },
    {
      "transactionHash": "0x746c91f32592457219642774a6a02e69ed0650be7521cd3b1fd274fa5892a51d",
      "transactionIndex": "0x2",
      "blockHash": "0xf38daf7ec0ae9acba834a3cea1fe0770bd0b906a708400d340aef2aec50e666a",
      "blockNumber": "0x374ced",
      "from": "0x0000007EabfC2E6a6b33b21D2f73D58941BAb574",
      "to": null,
      "cumulativeGasUsed": "0x1eba2f",
      "gasUsed": "0x9e3d9",
      "contractAddress": "0xD570bF4598D3ccF214E288dd92222b8Bd3134984",
      "logs": [
        {
          "address": "0xD570bF4598D3ccF214E288dd92222b8Bd3134984",
          "topics": [
            "0x8be0079c531659141344cd1fd0a4f28419497f9722a3daafe3b4186f6b6457e0",
            "0x0000000000000000000000000000000000000000000000000000000000000000",
            "0x0000000000000000000000000000007eabfc2e6a6b33b21d2f73d58941bab574"
          ],
          "data": "0x",
          "blockHash": "0xf38daf7ec0ae9acba834a3cea1fe0770bd0b906a708400d340aef2aec50e666a",
          "blockNumber": "0x374ced",
          "transactionHash": "0x746c91f32592457219642774a6a02e69ed0650be7521cd3b1fd274fa5892a51d",
          "transactionIndex": "0x2",
          "logIndex": "0x0",
          "removed": false
        },
        {
          "address": "0xD570bF4598D3ccF214E288dd92222b8Bd3134984",
          "topics": [
            "0xddf252ad1be2c89b69c2b068fc378daa952ba7f163c4a11628f55a4df523b3ef",
            "0x0000000000000000000000000000000000000000000000000000000000000000",
            "0x0000000000000000000000000000007eabfc2e6a6b33b21d2f73d58941bab574"
          ],
          "data": "0x00000000000000000000000000000000000000000000000000038d7ea4c68000",
          "blockHash": "0xf38daf7ec0ae9acba834a3cea1fe0770bd0b906a708400d340aef2aec50e666a",
          "blockNumber": "0x374ced",
          "transactionHash": "0x746c91f32592457219642774a6a02e69ed0650be7521cd3b1fd274fa5892a51d",
          "transactionIndex": "0x2",
          "logIndex": "0x1",
          "removed": false
        }
      ],
      "status": "0x1",
      "logsBloom": "0x00000000000000000000000000000000000000000000000000820000000000000000000000000000000000000000000000000000000000000000000000000000000000000000000000000008004000000001000000000000000000000000000000000000020000000000000000000800000000000000000000000010000000400000000000000000000000000010000000040000000000000000000000000000000000000000000000000000000000000000000000000001000000000000000000000002000000000000000000000000000000100000000000000000000020000000000000000000000000000000000000000000000000000000000000000000",
      "type": "0x2",
      "effectiveGasPrice": "0x104c533c00"
    },
    {
      "transactionHash": "0x33f018c92d93bb7ca8e4a94a072ed18e26d10f8dd78a76e42d9785169bacb464",
      "transactionIndex": "0x3",
      "blockHash": "0xf38daf7ec0ae9acba834a3cea1fe0770bd0b906a708400d340aef2aec50e666a",
      "blockNumber": "0x374ced",
      "from": "0x0000007EabfC2E6a6b33b21D2f73D58941BAb574",
      "to": null,
      "cumulativeGasUsed": "0x289e08",
      "gasUsed": "0x9e3d9",
      "contractAddress": "0xB06c44B2601AB296269dDC081492B266C49C6949",
      "logs": [
        {
          "address": "0xB06c44B2601AB296269dDC081492B266C49C6949",
          "topics": [
            "0x8be0079c531659141344cd1fd0a4f28419497f9722a3daafe3b4186f6b6457e0",
            "0x0000000000000000000000000000000000000000000000000000000000000000",
            "0x0000000000000000000000000000007eabfc2e6a6b33b21d2f73d58941bab574"
          ],
          "data": "0x",
          "blockHash": "0xf38daf7ec0ae9acba834a3cea1fe0770bd0b906a708400d340aef2aec50e666a",
          "blockNumber": "0x374ced",
          "transactionHash": "0x33f018c92d93bb7ca8e4a94a072ed18e26d10f8dd78a76e42d9785169bacb464",
          "transactionIndex": "0x3",
          "logIndex": "0x2",
          "removed": false
        },
        {
          "address": "0xB06c44B2601AB296269dDC081492B266C49C6949",
          "topics": [
            "0xddf252ad1be2c89b69c2b068fc378daa952ba7f163c4a11628f55a4df523b3ef",
            "0x0000000000000000000000000000000000000000000000000000000000000000",
            "0x0000000000000000000000000000007eabfc2e6a6b33b21d2f73d58941bab574"
          ],
          "data": "0x00000000000000000000000000000000000000000000000000038d7ea4c68000",
          "blockHash": "0xf38daf7ec0ae9acba834a3cea1fe0770bd0b906a708400d340aef2aec50e666a",
          "blockNumber": "0x374ced",
          "transactionHash": "0x33f018c92d93bb7ca8e4a94a072ed18e26d10f8dd78a76e42d9785169bacb464",
          "transactionIndex": "0x3",
          "logIndex": "0x3",
          "removed": false
        }
      ],
      "status": "0x1",
      "logsBloom": "0x00000000000000000000000000000000000000000000000000820000000000000000000000000000000000000000000000000000000000000000000000000000000000000000000000000008000000000001000000000000000000000000000000000000020000000000000000000800000000000000000000000010000000400000000000004000000000000000000000040000000000000000000000000000000000000000000000000000000000000000000000000001000000000000000000000002000000000000000004000000400000000000000000000000000020000000000000000000000000000000000000000000000000000000000000000000",
      "type": "0x2",
      "effectiveGasPrice": "0x104c533c00"
    },
    {
      "transactionHash": "0xec2b31d18993d6fc84789f3a9aa04e484a27027583aafed58b98936b4b0d7432",
      "transactionIndex": "0x4",
      "blockHash": "0xf38daf7ec0ae9acba834a3cea1fe0770bd0b906a708400d340aef2aec50e666a",
      "blockNumber": "0x374ced",
      "from": "0x0000007EabfC2E6a6b33b21D2f73D58941BAb574",
      "to": "0xD570bF4598D3ccF214E288dd92222b8Bd3134984",
      "cumulativeGasUsed": "0x29532b",
      "gasUsed": "0xb523",
      "contractAddress": null,
      "logs": [
        {
          "address": "0xD570bF4598D3ccF214E288dd92222b8Bd3134984",
          "topics": [
            "0x8c5be1e5ebec7d5bd14f71427d1e84f3dd0314c0f7b2291e5b200ac8c7c3b925",
            "0x0000000000000000000000000000007eabfc2e6a6b33b21d2f73d58941bab574",
            "0x0000000000000000000000008b3340efcb90e586edf0790538c7f3730560d4b3"
          ],
          "data": "0x0000000000000000000000000000000000000000000000000de0b6b3a7640000",
          "blockHash": "0xf38daf7ec0ae9acba834a3cea1fe0770bd0b906a708400d340aef2aec50e666a",
          "blockNumber": "0x374ced",
          "transactionHash": "0xec2b31d18993d6fc84789f3a9aa04e484a27027583aafed58b98936b4b0d7432",
          "transactionIndex": "0x4",
          "logIndex": "0x4",
          "removed": false
        }
      ],
      "status": "0x1",
      "logsBloom": "0x00000000000000000000000000000000000000000000000000020000000000000000100000000000000000000000000000000000000000000000000000200000000000000000000000000000004000000000000000000000000000000000000000000000000000000080000000000000000000000000000000000000000000000000000000000800000000000010000000040000000000000000000000000000020000000000000000000000000000000000000000000001000000000000000000000000000000000000000000000000000000100000000000000000000000000010000000000000000000000000000000000000000000000000000000000000",
      "type": "0x2",
      "effectiveGasPrice": "0x104c533c00"
    },
    {
      "transactionHash": "0x84a0ac8a7a14d07b6d5687e4ecc957748df57765298652b95d861e682902d501",
      "transactionIndex": "0x5",
      "blockHash": "0xf38daf7ec0ae9acba834a3cea1fe0770bd0b906a708400d340aef2aec50e666a",
      "blockNumber": "0x374ced",
      "from": "0x0000007EabfC2E6a6b33b21D2f73D58941BAb574",
      "to": "0xB06c44B2601AB296269dDC081492B266C49C6949",
      "cumulativeGasUsed": "0x2a084e",
      "gasUsed": "0xb523",
      "contractAddress": null,
      "logs": [
        {
          "address": "0xB06c44B2601AB296269dDC081492B266C49C6949",
          "topics": [
            "0x8c5be1e5ebec7d5bd14f71427d1e84f3dd0314c0f7b2291e5b200ac8c7c3b925",
            "0x0000000000000000000000000000007eabfc2e6a6b33b21d2f73d58941bab574",
            "0x0000000000000000000000008b3340efcb90e586edf0790538c7f3730560d4b3"
          ],
          "data": "0x0000000000000000000000000000000000000000000000000de0b6b3a7640000",
          "blockHash": "0xf38daf7ec0ae9acba834a3cea1fe0770bd0b906a708400d340aef2aec50e666a",
          "blockNumber": "0x374ced",
          "transactionHash": "0x84a0ac8a7a14d07b6d5687e4ecc957748df57765298652b95d861e682902d501",
          "transactionIndex": "0x5",
          "logIndex": "0x5",
          "removed": false
        }
      ],
      "status": "0x1",
      "logsBloom": "0x00000000000000000000000000000000000000000000000000020000000000000000100000000000000000000000000000000000000000000000000000200000000000000000000000000000000000000000000000000000000000000000000000000000000000000080000000000000000000000000000000000000000000000000000000004800000000000000000000040000000000000000000000000000020000000000000000000000000000000000000000000001000000000000000000000000000000000000000004000000400000000000000000000000000000000010000000000000000000000000000000000000000000000000000000000000",
      "type": "0x2",
      "effectiveGasPrice": "0x104c533c00"
    },
    {
      "transactionHash": "0x78d587afac5531c3a45804bfb4027b07c5a2b89f0fac4312b7d21f8960e6882a",
      "transactionIndex": "0x6",
      "blockHash": "0xf38daf7ec0ae9acba834a3cea1fe0770bd0b906a708400d340aef2aec50e666a",
      "blockNumber": "0x374ced",
      "from": "0x0000007EabfC2E6a6b33b21D2f73D58941BAb574",
      "to": "0x8b3340EFcB90e586Edf0790538c7f3730560D4b3",
      "cumulativeGasUsed": "0x2d2050",
      "gasUsed": "0x31802",
      "contractAddress": null,
      "logs": [
        {
          "address": "0xD570bF4598D3ccF214E288dd92222b8Bd3134984",
          "topics": [
            "0xddf252ad1be2c89b69c2b068fc378daa952ba7f163c4a11628f55a4df523b3ef",
            "0x0000000000000000000000000000007eabfc2e6a6b33b21d2f73d58941bab574",
            "0x0000000000000000000000008b3340efcb90e586edf0790538c7f3730560d4b3"
          ],
          "data": "0x0000000000000000000000000000000000000000000000000000000008f0d180",
          "blockHash": "0xf38daf7ec0ae9acba834a3cea1fe0770bd0b906a708400d340aef2aec50e666a",
          "blockNumber": "0x374ced",
          "transactionHash": "0x78d587afac5531c3a45804bfb4027b07c5a2b89f0fac4312b7d21f8960e6882a",
          "transactionIndex": "0x6",
          "logIndex": "0x6",
          "removed": false
        },
        {
          "address": "0x8b3340EFcB90e586Edf0790538c7f3730560D4b3",
          "topics": [
            "0x5f88d55333195757ca319aa0ac617520059267f8245f2067982a6caaf6916b81",
            "0x0000000000000000000000000000000000000000000000000000000000000001",
            "0x0000000000000000000000000000007eabfc2e6a6b33b21d2f73d58941bab574",
            "0x000000000000000000000000d570bf4598d3ccf214e288dd92222b8bd3134984"
          ],
          "data": "0x0000000000000000000000000000000000000000000000000000000008f0d1800000000000000000000000000000000000000000000000000000000000000001",
          "blockHash": "0xf38daf7ec0ae9acba834a3cea1fe0770bd0b906a708400d340aef2aec50e666a",
          "blockNumber": "0x374ced",
          "transactionHash": "0x78d587afac5531c3a45804bfb4027b07c5a2b89f0fac4312b7d21f8960e6882a",
          "transactionIndex": "0x6",
          "logIndex": "0x7",
          "removed": false
        }
      ],
      "status": "0x1",
      "logsBloom": "0x00000000000000000000000000200000000000000000000000020000000000000000100000000000000000000000000000000000000000000000000000040000000008000000000000000008004000000000000000040000000000000000000000000000000000000080000000000000008001000000000000000010000000000000000000000800000000000010000000040000000000000000800000000000000000000000000000000000000000000000000000000001000000000000000000000002000000002000000000000000000000100000000000000000000040000000000000000000000000000000200000000000000100000000000000000000",
      "type": "0x2",
      "effectiveGasPrice": "0x104c533c00"
    },
    {
      "transactionHash": "0x9e25bae1ce147870c9770e33990d2fa3af0c70ddb7a6ee8d640a7b279faa8e6d",
      "transactionIndex": "0x7",
      "blockHash": "0xf38daf7ec0ae9acba834a3cea1fe0770bd0b906a708400d340aef2aec50e666a",
      "blockNumber": "0x374ced",
      "from": "0x0000007EabfC2E6a6b33b21D2f73D58941BAb574",
      "to": "0x8b3340EFcB90e586Edf0790538c7f3730560D4b3",
      "cumulativeGasUsed": "0x2ff57a",
      "gasUsed": "0x2d52a",
      "contractAddress": null,
      "logs": [
        {
          "address": "0xB06c44B2601AB296269dDC081492B266C49C6949",
          "topics": [
            "0xddf252ad1be2c89b69c2b068fc378daa952ba7f163c4a11628f55a4df523b3ef",
            "0x0000000000000000000000000000007eabfc2e6a6b33b21d2f73d58941bab574",
            "0x0000000000000000000000008b3340efcb90e586edf0790538c7f3730560d4b3"
          ],
          "data": "0x0000000000000000000000000000000000000000000000000000000005f5e100",
          "blockHash": "0xf38daf7ec0ae9acba834a3cea1fe0770bd0b906a708400d340aef2aec50e666a",
          "blockNumber": "0x374ced",
          "transactionHash": "0x9e25bae1ce147870c9770e33990d2fa3af0c70ddb7a6ee8d640a7b279faa8e6d",
          "transactionIndex": "0x7",
          "logIndex": "0x8",
          "removed": false
        },
        {
          "address": "0x8b3340EFcB90e586Edf0790538c7f3730560D4b3",
          "topics": [
            "0x5f88d55333195757ca319aa0ac617520059267f8245f2067982a6caaf6916b81",
            "0x0000000000000000000000000000000000000000000000000000000000000002",
            "0x0000000000000000000000000000007eabfc2e6a6b33b21d2f73d58941bab574",
            "0x000000000000000000000000b06c44b2601ab296269ddc081492b266c49c6949"
          ],
          "data": "0x0000000000000000000000000000000000000000000000000000000005f5e1000000000000000000000000000000000000000000000000000000000000000002",
          "blockHash": "0xf38daf7ec0ae9acba834a3cea1fe0770bd0b906a708400d340aef2aec50e666a",
          "blockNumber": "0x374ced",
          "transactionHash": "0x9e25bae1ce147870c9770e33990d2fa3af0c70ddb7a6ee8d640a7b279faa8e6d",
          "transactionIndex": "0x7",
          "logIndex": "0x9",
          "removed": false
        }
      ],
      "status": "0x1",
      "logsBloom": "0x04000000000000000000000000000000000000000000000000020000000000000000100000000000000000000000000000000000000000000000000000000000000008000000000001000008000000000000000000000000000000000000000000000000000000000080000000000000008001000000000000000010000000000000000000004800000000000000000000040000000000000000000000000000000000000000000000000100000000000008000000000001000000000000000000000002000000002000000004000000400000000000000000000000000000000000000000000000000000004000200000000000008100000000000000000000",
      "type": "0x2",
      "effectiveGasPrice": "0x104c533c00"
    },
    {
      "transactionHash": "0x49f3e5e31d72604d952468b7a8785c988f32f9095fa7c2646aec5e71d7bcbe26",
      "transactionIndex": "0x8",
      "blockHash": "0xf38daf7ec0ae9acba834a3cea1fe0770bd0b906a708400d340aef2aec50e666a",
      "blockNumber": "0x374ced",
      "from": "0x0000007EabfC2E6a6b33b21D2f73D58941BAb574",
      "to": "0x8b3340EFcB90e586Edf0790538c7f3730560D4b3",
      "cumulativeGasUsed": "0x3287d8",
      "gasUsed": "0x2925e",
      "contractAddress": null,
      "logs": [
        {
          "address": "0xB06c44B2601AB296269dDC081492B266C49C6949",
          "topics": [
            "0xddf252ad1be2c89b69c2b068fc378daa952ba7f163c4a11628f55a4df523b3ef",
            "0x0000000000000000000000000000007eabfc2e6a6b33b21d2f73d58941bab574",
            "0x0000000000000000000000008b3340efcb90e586edf0790538c7f3730560d4b3"
          ],
          "data": "0x000000000000000000000000000000000000000000000000000000000bebc200",
          "blockHash": "0xf38daf7ec0ae9acba834a3cea1fe0770bd0b906a708400d340aef2aec50e666a",
          "blockNumber": "0x374ced",
          "transactionHash": "0x49f3e5e31d72604d952468b7a8785c988f32f9095fa7c2646aec5e71d7bcbe26",
          "transactionIndex": "0x8",
          "logIndex": "0xa",
          "removed": false
        },
        {
          "address": "0x8b3340EFcB90e586Edf0790538c7f3730560D4b3",
          "topics": [
            "0x5f88d55333195757ca319aa0ac617520059267f8245f2067982a6caaf6916b81",
            "0x0000000000000000000000000000000000000000000000000000000000000003",
            "0x0000000000000000000000000000007eabfc2e6a6b33b21d2f73d58941bab574",
            "0x000000000000000000000000b06c44b2601ab296269ddc081492b266c49c6949"
          ],
          "data": "0x000000000000000000000000000000000000000000000000000000000bebc2000000000000000000000000000000000000000000000000000000000000000003",
          "blockHash": "0xf38daf7ec0ae9acba834a3cea1fe0770bd0b906a708400d340aef2aec50e666a",
          "blockNumber": "0x374ced",
          "transactionHash": "0x49f3e5e31d72604d952468b7a8785c988f32f9095fa7c2646aec5e71d7bcbe26",
          "transactionIndex": "0x8",
          "logIndex": "0xb",
          "removed": false
        }
      ],
      "status": "0x1",
      "logsBloom": "0x00000000000000000000000000000000000000000000000000020000000000000000100000000000000000000000000000000000020000000000000000000000000008000000000001000008000000000000000000000000000000000000000000000000000000000080000000000000008001000000000000000010000000000000000000004800000000000000000000040000000000000000000000000000000000000000000000000000000000000008000000800001000000000000400000000002000000002000000004000000400000000000000000000000000000000000000000000000000000004000200000000000000100000000000000000000",
      "type": "0x2",
      "effectiveGasPrice": "0x104c533c00"
    }
  ],
  "libraries": [],
  "pending": [],
  "returns": {},
  "timestamp": 1724498075,
  "chain": 59141,
  "multi": false,
  "commit": "7aea0e0"
}